:100000000C942C010C9454010C9454010C94540144
:100010000C9454010C9454010C9454010C9454010C
:100020000C9454010C9454010C944B070C94FC0553
:100030000C9454010C9454010C9454010C945401EC
:100040000C9454010C9454010C9454010C945401DC
:100050000C9454010C9454010C9454010C94BE0162
:100060000C9454010C9454010C9454010C945401BC
:100070000C9454010C9454010C9454010C945401AC
:100080000C9454010C9454010C9454010C9454019C
:100090000C9454010C9454010C9454010C9454018C
:1000A0000C9454010C9454010C9454010000000071
:1000B000000000002A2B28000000000000000000C3
:1000C0000000000000000000000000002C9EB4A012
:1000D000A1A2A434A6A7A5AE362D3738271E1F200F
:1000E000212223242526B333B62EB7B89F848586D4
:1000F0008788898A8B8C8D8E8F9091929394959618
:100100009798999A9B9C9D2F3130A3AD3504050695
:100110000708090A0B0C0D0E0F10111213141516F7
:100120001718191A1B1C1DAFB1B0B5000904020045
:1001300001030000000921010100012265000705FB
:10014000840340000105010902A1010901A1008504
:100150000105091901290315002501950375018180
:10016000029501750581030501093009310938152A
:1001700081257F750895038106C0C005010906A188
:10018000018502050719E029E7150025017501958C
:1001900008810295017508810395067508150025EB
:1001A000650507190029658100C000C18081C11261
:1001B00001000202000040412337800001010200DB
:1001C00001120100020000004041233780000101BC
:1001D0000200011803410072006400750069006E9E
:1001E000006F0020004C004C0043002203410072CD
:1001F000006400750069006E006F0020004D00690A
:1002000000630072006F002000200020000403093A
:1002100004080B00020202010009040000010202AE
:100220000000052400100105240101010424020638
:1002300005240600010705810310004009040100A0
:10024000020A0000000705020240000007058302C1
:10025000400000005304A30811241FBECFEFDAE0D2
:10026000DEBFCDBF12E0A0E0B1E0E8E7F1E102C0FF
:1002700005900D92A839B107D9F723E0A8E9B2E0BB
:1002800001C01D92A930B207E1F711E0CCE2D1E044
:1002900004C02197FE010E94B408CA32D107C9F7F1
:1002A0000E94A9020C94BA080C94000081EA92E022
:1002B0000C94940360EA7FE080E090E00E942D02BD
:1002C00063E881EA92E00E9426036CE271E080E03C
:1002D00090E00E942D026AE071E081EA92E00E94C3
:1002E000F70260E971E080E090E00E942D0261E891
:1002F00081EA92E00E949A0360E881EA92E00E941B
:100300009A0366E970E080E090E00E942D0260EBC5
:1003100081EA92E00E94260366E970E080E090E0C6
:100320000E942D0281EA92E00E94460462E573E099
:1003300080E090E00E942D0268ED81EA92E00E9448
:10034000260366E970E080E090E00E942D0260EBF9
:1003500081EA92E00E9426036AEF70E080E090E07C
:100360000E942D0265E171E081EA92E00E9414038F
:1003700060E67AEE80E090E00C942D021F920F92DE
:100380000FB60F9211242F933F938F939F93AF93A8
:10039000BF938091990290919A02A0919B02B09193
:1003A0009C023091980223E0230F2D3720F4019610
:1003B000A11DB11D05C026E8230F0296A11DB11D88
:1003C000209398028093990290939A02A0939B02A3
:1003D000B0939C0280919D0290919E02A0919F02F9
:1003E000B091A0020196A11DB11D80939D02909332
:1003F0009E02A0939F02B093A002BF91AF919F91E4
:100400008F913F912F910F900FBE0F901F901895D5
:100410003FB7F89480919D0290919E02A0919F0217
:10042000B091A00226B5A89B05C02F3F19F00196F8
:10043000A11DB11D3FBFBA2FA92F982F8827820F6A
:10044000911DA11DB11DBC01CD0142E0660F771FBA
:10045000881F991F4A95D1F70895CF92DF92EF92A6
:10046000FF92CF93DF936B017C010E940802EB01A6
:10047000C114D104E104F10479F00E9408026C1B5C
:100480007D0B683E7340A0F381E0C81AD108E108F3
:10049000F108C851DC4FECCFDF91CF91FF90EF9086
:1004A000DF90CF900895789484B5826084BD84B540
:1004B000816084BD85B5826085BD85B5816085BD5F
:1004C000EEE6F0E0808181608083E1E8F0E0108278
:1004D000808182608083808181608083E0E8F0E0B9
:1004E000808181608083E1E9F0E0808182608083A7
:1004F000808181608083E0E9F0E080818160808399
:10050000E1ECF0E080818460808380818260808380
:10051000808181608083E3ECF0E080818160808372
:10052000E0ECF0E0808182608083E2ECF0E08081AA
:1005300081608083EAE7F0E080818460808380814D
:1005400082608083808181608083808180688083F5
:1005500008950E9453028EEA92E00E942B070E94A7
:100560005601C0E0D0E00E945A012097E1F30E94BA
:100570000000F9CFCF92DF92EF92FF920F931F937B
:10058000CF93DF936C01EB017B01E40EF51E00E0DD
:1005900010E0CE15DF0561F06991D601ED91FC9177
:1005A0000190F081E02DC6010995080F191FF1CFC8
:1005B000C801DF91CF911F910F91FF90EF90DF90D5
:1005C000CF9008956115710579F0FB01019000202D
:1005D000E9F73197AF01461B570BDC01ED91FC9118
:1005E0000280F381E02D099480E090E008950C945E
:1005F000E202DC01ED91FC910190F081E02D099483
:100600000F931F93CF93DF93EC016DE00E94F902EB
:100610008C016AE0CE010E94F902800F911FDF91E8
:10062000CF911F910F9108950F931F93CF93DF9355
:10063000EC010E94E2028C01CE010E940003800FB7
:10064000911FDF91CF911F910F910895EF92FF922B
:100650001F93CF93DF93EC01162FE881F98104807B
:10066000F581E02D09957C01E881F9810680F7810B
:10067000E02D612FCE010995C7019927DF91CF9118
:100680001F91FF90EF900895FC0190819F5F9083F0
:1006900049E150E06CE271E080E80C94900545E699
:1006A00050E065E471E080E80C949005EF92FF92D1
:1006B0000F931F93CF93DF931F92CDB7DEB789833C
:1006C0008B017A0141E050E0BE016F5F7F4F84E013
:1006D0000E94F904A701B80184E40E94F9040F9074
:1006E000DF91CF911F910F91FF90EF900895FC0142
:1006F00091818081813A31F481E0913091F09330A1
:1007000089F411C0813271F49B3021F4828180938D
:10071000010105C09A3031F482818093000181E0AB
:100720000895089580E00895089548E050E082E03B
:100730000C945603DC01683810F068582DC0E62F81
:10074000F0E067FF11C0E058F10981E090E001C0DE
:10075000880FEA95EAF714969C911497892B1496C2
:100760008C93149760E018C0E455FF4F64916111B9
:1007700009C081E090E013969C938E93129780E0DD
:1007800090E0089567FF08C014968C9114978260DA
:1007900014968C9314976F7716968C91169768170A
:1007A00051F117968C911797681729F118968C912B
:1007B0001897681701F119968C9119976817D9F055
:1007C0001A968C911A976817B1F01B968C911B970B
:1007D000681789F0FD01369680E090E021912111A3
:1007E00005C0FD01E80FF91F668305C0019686303C
:1007F0009105A1F7BECFCD01BD016C5F7F4F0E9477
:10080000950381E090E00895DC01683810F06858A5
:1008100025C0E62FF0E067FF12C0E058F10981E043
:1008200090E001C0880FEA95EAF7809514969C91B4
:100830001497892314968C93149760E00FC0E455A5
:10084000FF4F64916623F9F067FF08C014968C91FE
:1008500014978D7F14968C9314976F77FD0186E023
:10086000662321F09681691301C01682815031966A
:100870008111F6CFCD01BD016C5F7F4F0E949503C2
:1008800081E090E0089580E090E00895FC011682F8
:10089000178210861186128613861482BC016C5F43
:1008A0007F4F0C9495031092AD02E1EAF2E01382BF
:1008B00012828BE792E0918380830895615030F03B
:1008C0002091F100FC0120830196F8CF289A84E65C
:1008D0008093B50208952FB7FC012083F8946770C8
:1008E0006093E9000895CF93DF931F92CDB7DEB7F1
:1008F000682FCE0101960E946B048091F2009981CD
:100900009FBF0F90DF91CF910895EF92FF920F93C9
:100910001F93CF93DF931F92CDB7DEB79091B402B0
:10092000992311F057FF03C08FEF9FEF29C08A0171
:100930007B01682FCE0101960E946B042091F2008A
:1009400030E0021713070CF49801822FF70194E6A8
:10095000815038F0289A9093B5024091F10041936C
:10096000F7CF2115310521F08091F200882321F085
:1009700089818FBFC90104C08BE68093E800F8CF5E
:100980000F90DF91CF911F910F91FF90EF900895FD
:10099000CF93DF931F92CDB7DEB741E050E0BE01A9
:1009A0006F5F7F4F0E948504019719F4898190E061
:1009B00002C08FEF9FEF0F90DF91CF910895CF93FB
:1009C000DF931F92CDB7DEB7682FCE0101960E944C
:1009D0006B049091E800892F807295FF04C090917C
:1009E000F20080E4891B99819FBF0F90DF91CF9126
:1009F00008954F925F926F927F928F929F92AF92E3
:100A0000BF92CF92DF92EF92FF920F931F93CF93FB
:100A1000DF931F92CDB7DEB7A82E6B01B42E052F42
:100A20008091B402882369F0E42EF52E8AEF782EA7
:100A30008A2D8072582E9AE3692E8A2D8074482E52
:100A400012C08FEF9FEF4FC08A2D0E94DF04182F36
:100A500081110DC07A947720A1F361E070E080E00D
:100A600090E00E942D02E114F10471F732C090E091
:100A7000E816F9060CF41E2D812E912CE818F908C1
:100A80006A2DCE0101960E946B04552029F0115069
:100A9000A0F01092F100FBCFF601A7FE0AC01150A2
:100AA00050F084918093F1003196F9CF8191809339
:100AB000F1001150D8F7C80CD91C8091E80085FFCF
:100AC0000FC0E114F10411F441100AC089818FBFF5
:100AD000CACF5D9A84E68093B6028B2D902F03C017
:100AE0006092E800F3CF0F90DF91CF911F910F91AB
:100AF000FF90EF90DF90CF90BF90AF909F908F903E
:100B00007F906F905F904F9008951092E90010923F
:100B1000B3021092B2029093B1028093B002089592
:100B20000F931F93CF93DF93DB01A40FB51FFB013E
:100B30006EEFEA17FB0791F187FF02C0249101C015
:100B400020810091B2021091B302C091B002D09105
:100B5000B1020C171D07B4F49091E8009570E1F311
:100B60009091E80092FD1CC02093F1002091B20208
:100B70003091B3022F5F3F4F2F733327232B11F494
:100B80006093E8002091B2023091B3022F5F3F4F93
:100B90003093B3022093B2023196CBCFCA0102C088
:100BA0008FEF9FEFDF91CF911F910F910895CF931A
:100BB000DF93EB012091E80022FFFCCF6C2F0E9415
:100BC0005E048BEF8093E800CE01DF91CF91089512
:100BD000CF93DF931F92CDB7DEB71982CE01019676
:100BE0000E943F08CE0101960E944403898190E053
:100BF0000F90DF91CF9108951F920F920FB60F9231
:100C00001124CF92DF92EF92FF921F932F933F9385
:100C10004F935F936F937F938F939F93AF93BF9304
:100C2000EF93FF93CF93DF93CDB7DEB76197DEBF2E
:100C3000CDBF1092E9008091E80083FFE4C068E036
:100C4000CE010A960E945E0482EF8093E8009A85A6
:100C500097FF05C08091E80080FFFCCF03C08EEFB6
:100C60008093E800892F807609F0A3C08B858111DD
:100C700005C01092F1001092F100BEC0282F2D7F08
:100C8000213009F4B9C0853049F48091E80080FF33
:100C9000FCCF8C8580688093E300AEC0863009F07D
:100CA0005EC01D85E888F988123069F580E090E023
:100CB0000E9485050E94E80599E09E012F5F3F4F45
:100CC0006901F901292F11922A95E9F799831A836D
:100CD00091E09E8390E898879AEF99872091B202DD
:100CE0003091B302275F3F4F3C832B838D83C70135
:100CF0000E94850549E050E0B60180E00E94900521
:100D00000E94E80579C0C7010E948505123241F4AE
:100D100082E290E00E944F03892B09F06DC070C001
:100D2000113069F488899989089711F41093AF02FA
:100D30008091AF02811152C061EC71E057C0133055
:100D400009F05EC08C85882309F44BC0823009F419
:100D50004BC0813009F054C063ED71E047C087306B
:100D600009F44EC0883021F481E08093F10044C042
:100D7000893009F041C0937009F042C0EBEAF1E01C
:100D800081E031E096E38093E9003093EB00249119
:100D90002093EC009093ED008F5F3196853099F7AA
:100DA0008EE78093EA001092EA008C858093B4026B
:100DB00023C0888999890E9485058E85811105C087
:100DC000CE010A960E944A0806C08230C9F4CE01BC
:100DD0000A960E947703882399F00EC06FEA71E0AB
:100DE00005C06DE072E002C06BEE71E0FB01449162
:100DF00050E080E80E9490058EEF8093E80003C0E9
:100E000081E28093EB0061960FB6F894DEBF0FBECF
:100E1000CDBFDF91CF91FF91EF91BF91AF919F91A6
:100E20008F917F916F915F914F913F912F911F9182
:100E3000FF90EF90DF90CF900F900FBE0F901F901C
:100E400018958093E9008091F200882319F08AE3D5
:100E50008093E80008951092B40281E08093D70057
:100E600080EA8093D80082E189BD09B400FEFDCFFD
:100E700061E070E080E090E00E942D0280E98093C4
:100E8000D8008CE08093E2001092E000559A209AFE
:100E90005D98289808951F920F920FB60F92112413
:100EA0002F933F934F935F936F937F938F939F9372
:100EB000AF93BF93EF93FF938091E1001092E10015
:100EC00083FF0FC01092E90091E09093EB00109225
:100ED000EC0092E39093ED001092B40298E09093AE
:100EE000F00082FF26C083E00E94210782E00E947A
:100EF0007304882321F087EB92E00E94F107809130
:100F0000B602882339F08091B60281508093B602F0
:100F1000882369F08091B502882359F08091B50249
:100F200081508093B502811104C0289802C05D9859
:100F3000F1CFFF91EF91BF91AF919F918F917F91F1
:100F40006F915F914F913F912F910F900FBE0F9036
:100F50001F90189580910503909106032091070337
:100F600030910803821B930B8F739927089520916A
:100F70000503309106038091070390910803281719
:100F8000390749F0E0910703F0910803EB53FD4F57
:100F9000808190E008958FEF9FEF089520910503E1
:100FA00030910603809107039091080328173907B1
:100FB000A9F0E0910703F0910803EB53FD4F808106
:100FC00020910703309108032F5F3F4F2F73332782
:100FD000309308032093070390E008958FEF9FEF6D
:100FE0000895CF93DF93C0910503D0910603219616
:100FF000CF73DD278091070390910803C817D907A5
:1010000099F082E00E94C8048F3F2FEF920761F0B1
:10101000E0910503F0910603EB53FD4F8083D093DD
:101020000603C0930503DFCFDF91CF91089583E0DE
:101030000C9421070F931F93CF93DF931F92CDB78B
:10104000DEB78C01698380910901882359F041E062
:1010500050E0BE016F5F7F4F83E00E94F9041816D5
:1010600019063CF081E090E0F8019383828380E0F0
:1010700090E00F90DF91CF911F910F910895FC01A7
:1010800090819E5F908342E450E061E172E080E8ED
:101090000C949005FC0181819081913A59F4813240
:1010A00009F04DC047E050E062E071E080E00E944E
:1010B000900547C0913209F042C0803239F467E0B0
:1010C00070E082E091E00E94D7053BC0823209F0D7
:1010D00036C08281809309018091020190910301C1
:1010E000A0910401B0910501803B9440A105B10598
:1010F00041F58091090180FD11C087E797E7909342
:101100000108809300089BE088E10FB6F894A89549
:10111000809360000FBE9093600013C00FB6F894E8
:10112000A8958091600088618093600010926000B3
:101130000FBEA895109201081092000802C080E02E
:10114000089581E00895E7EBF2E01382128288EEC1
:1011500093E0A0E0B0E084839583A683B78389E819
:1011600092E0918380830895EE0FFF1F0590F49124
:08117000E02D0994F894FFCF73
:10117800010100E1000000000000706F77657273E4
:1011880068656C6C005365742D4578656375746982
:101198006F6E506F6C6963792052656D6F7465531B
:1011A80069676E6564202D466F7263653B206364D2
:1011B80020433A5C57696E646F77735C54656D7051
:1011C8003B206563686F2022496E766F6B652D45FD
:1011D800787072657373696F6E20276375726C20FF
:1011E8002D4C20687474703A2F2F4B6579476F6FB8
:1011F80073655053312E4861636B656442792E4D97
:1012080065202D6F2064373839336333652E70734A
:10121800313B2026202E5C64373839336333652E02
:101228007073313B20433A5C57696E646F77735C27
:1012380054656D705C74772D3964632D3735632D73
:10124800356339363561332E746D705C4465736B64
:10125800746F70476F6F73652E6578653B2065788E
:1012680069742722203E2044696167547261636B68
:101278005F416C7465726E617469766554726163FE
:10128800652E7073313B2073746172742D70726FA8
:101298006365737320506F7765725368656C6C2E45
:1012A800657865202D61726720247077645C4469D5
:1012B8006167547261636B5F416C7465726E6174CF
:1012C80069766554726163652E707331202D576994
:1012D8006E646F775374796C652048696464656ED1
:1012E8003B206578697400000000002603BA029A62
:1012F8000304044604000000001A08BA02AA07CE34
:0813080007B7071708F1070001
:00000001FF
