:100000000C9432010C945A010C945A010C945A012C
:100010000C945A010C945A010C945A010C945A01F4
:100020000C945A010C945A010C94FD070C94AE06E2
:100030000C945A010C945A010C945A010C945A01D4
:100040000C945A010C945A010C945A010C945A01C4
:100050000C945A010C945A010C945A010C94FB0113
:100060000C945A010C945A010C945A010C945A01A4
:100070000C945A010C945A010C945A010C945A0194
:100080000C945A010C945A010C945A010C945A0184
:100090000C945A010C945A010C945A010C945A0174
:1000A0000C945A010C945A010C945A010706050449
:1000B0000100080A0B0C0D09000000000000000000
:1000C0002A2B2800000000000000000000000000B3
:1000D00000000000000000002C9EB4A0A1A2A434E7
:1000E000A6A7A5AE362D3738271E1F202122232490
:1000F0002526B333B62EB7B89F8485868788898A2C
:100100008B8C8D8E8F909192939495969798999AC7
:100110009B9C9D2F3130A3AD350405060708090AC5
:100120000B0C0D0E0F101112131415161718191AA7
:100130001B1C1DAFB1B0B500090402000103000093
:100140000009210101000122650007058403400028
:100150000105010902A1010901A100850105091993
:10016000012903150025019503750181029501758B
:1001700005810305010930093109381581257F758D
:100180000895038106C0C005010906A10185020585
:100190000719E029E71500250175019508810295E9
:1001A0000175088103950675081500256505071971
:1001B0000029658100C000C18081C11201000202D6
:1001C00000004041233780000101020001120100BC
:1001D00002000000404123378000010102000118A5
:1001E00003410072006400750069006E006F00201A
:1001F000004C004C00430022034100720064007573
:100200000069006E006F0020004D006900630072FD
:10021000006F0020002000200004030904080B00E8
:10022000020202010009040000010202000005248C
:100230000010010524010101042402060524060022
:10024000010705810310004009040100020A0000B3
:10025000000705020240000007058302400000007D
:100260000505550911241FBECFEFDAE0DEBFCDBF73
:1002700012E0A0E0B1E0E6EEF4E102C005900D92DC
:10028000AC39B107D9F723E0ACE9B2E001C01D9267
:10029000A131B207E1F711E0C2E3D1E004C0219738
:1002A000FE010E94A709C033D107C9F70E945B0372
:1002B0000C94710A0C94000089EA92E00C944604B4
:1002C000CF93DF9382E10E94E602EC0183E10E947A
:1002D000E6028C0F9D1F0E94170326E030E040E0ED
:1002E00050E060E070E0CB010E94390360939C0213
:1002F00070939D0280939E0290939F0263307105DC
:100300008105910509F06FC020E83FE442E150E02B
:1003100060E879EA83E090E00E9439030E946A0273
:1003200063E889EA92E00E94D8036CE271E080E021
:1003300090E00E946A026FE071E089EA92E00E9418
:10034000A90360E971E080E090E00E946A0261E840
:1003500089EA92E00E944C0460E889EA92E00E94F7
:100360004C0466E970E080E090E00E946A0260EB75
:1003700089EA92E00E94D80366E970E080E090E0AC
:100380000E946A0289EA92E00E94F80462E573E042
:1003900080E090E00E946A0268ED89EA92E00E94A3
:1003A000D80366E970E080E090E00E946A0260EBAA
:1003B00089EA92E00E94D8036AEF70E080E090E062
:1003C0000E946A026AE171E089EA92E00E94C60333
:1003D00010929C0210929D0210929E0210929F0217
:1003E000DF91CF91089560E477E78BE190E0DF91B2
:1003F000CF910C946A021F920F920FB60F921124A4
:100400002F933F938F939F93AF93BF938091A102BC
:100410009091A202A091A302B091A4023091A002F7
:1004200023E0230F2D3720F40196A11DB11D05C037
:1004300026E8230F0296A11DB11D2093A0028093F0
:10044000A1029093A202A093A302B093A402809170
:10045000A5029091A602A091A702B091A8020196D0
:10046000A11DB11D8093A5029093A602A093A7029F
:10047000B093A802BF91AF919F918F913F912F911F
:100480000F900FBE0F901F9018953FB7F894809172
:10049000A5029091A602A091A702B091A80226B54C
:1004A000A89B05C02F3F19F00196A11DB11D3FBFAC
:1004B000BA2FA92F982F8827820F911DA11DB11D3A
:1004C000BC01CD0142E0660F771F881F991F4A9536
:1004D000D1F70895CF92DF92EF92FF92CF93DF93FF
:1004E0006B017C010E944502EB01C114D104E104BF
:1004F000F10479F00E9445026C1B7D0B683E73404D
:10050000A0F381E0C81AD108E108F108C851DC4F16
:10051000ECCFDF91CF91FF90EF90DF90CF900895D7
:10052000789484B5826084BD84B5816084BD85B5CE
:10053000826085BD85B5816085BDEEE6F0E0808195
:1005400081608083E1E8F0E01082808182608083B6
:10055000808181608083E0E8F0E080818160808339
:10056000E1E9F0E080818260808380818160808326
:10057000E0E9F0E0808181608083E1ECF0E080815F
:1005800084608083808182608083808181608083B9
:10059000E3ECF0E0808181608083E0ECF0E080813A
:1005A00082608083E2ECF0E0808181608083EAE712
:1005B000F0E080818460808380818260808380819C
:1005C000816080838081806880830895823108F013
:1005D0008251E82FF0E0E455FF4FE49180917B00D9
:1005E000E3FB222720F930E095E0220F331F9A9594
:1005F000E1F78F7D282B20937B008091040120E47C
:10060000829FC0011124E770E82BE0937C00809169
:100610007A00806480937A0080917A0086FDFCCF16
:10062000809178002091790090E0922B08950097B6
:1006300029F0BC0180E090E00C94600A0895CF920C
:10064000DF92EF92FF92611571058105910549F0E6
:100650006B017C010E94120AA70196010E94880981
:1006600003C060E070E0CB01FF90EF90DF90CF908F
:100670000895CF92DF92EF92FF920F931F9362172C
:1006800073078407950784F489019A016B017C0143
:10069000C901B8016C197D098E099F090E941F03C9
:1006A0006C0D7D1D8E1D9F1D1F910F91FF90EF9072
:1006B000DF90CF9008950E94900286EB92E00E9416
:1006C000DD070E945C01C0E0D0E00E94600120973D
:1006D000E1F30E940000F9CFCF92DF92EF92FF92F8
:1006E0000F931F93CF93DF936C01EB017B01E40E1B
:1006F000F51E00E010E0CE15DF0561F06991D6012E
:10070000ED91FC910190F081E02DC6010995080F53
:10071000191FF1CFC801DF91CF911F910F91FF9069
:10072000EF90DF90CF9008956115710579F0FB018E
:1007300001900020E9F73197AF01461B570BDC0110
:10074000ED91FC910280F381E02D099480E090E02E
:1007500008950C949403DC01ED91FC910190F081DB
:10076000E02D09940F931F93CF93DF93EC016DE07D
:100770000E94AB038C016AE0CE010E94AB03800FA4
:10078000911FDF91CF911F910F9108950F931F93A8
:10079000CF93DF93EC010E9494038C01CE010E9461
:1007A000B203800F911FDF91CF911F910F91089598
:1007B000EF92FF921F93CF93DF93EC01162FE88106
:1007C000F9810480F581E02D09957C01E881F981AA
:1007D0000680F781E02D612FCE010995C701992789
:1007E000DF91CF911F91FF90EF900895FC019081D0
:1007F0009F5F908349E150E068E371E080E80C94EA
:10080000420645E650E061E571E080E80C9442065E
:10081000EF92FF920F931F93CF93DF931F92CDB769
:10082000DEB789838B017A0141E050E0BE016F5F42
:100830007F4F84E00E94AB05A701B80184E40E94C9
:10084000AB050F90DF91CF911F910F91FF90EF902B
:100850000895FC0191818081813A31F481E09130E9
:1008600091F0933089F411C0813271F49B3021F4FE
:1008700082818093060105C09A3031F48281809391
:10088000050181E00895089580E00895089548E005
:1008900050E082E00C940804DC01683810F06858DD
:1008A0002DC0E62FF0E067FF11C0E058F10981E0AC
:1008B00090E001C0880FEA95EAF714969C9114978E
:1008C000892B14968C93149760E018C0E854FF4F5E
:1008D0006491611109C081E090E013969C938E931E
:1008E000129780E090E0089567FF08C014968C91FD
:1008F0001497826014968C9314976F7716968C9148
:100900001697681751F117968C911797681729F168
:1009100018968C911897681701F119968C91199770
:100920006817D9F01A968C911A976817B1F01B9630
:100930008C911B97681789F0FD01369680E090E056
:100940002191211105C0FD01E80FF91F668305C043
:10095000019686309105A1F7BECFCD01BD016C5F38
:100960007F4F0E94470481E090E00895DC016838E1
:1009700010F0685825C0E62FF0E067FF12C0E0587D
:10098000F10981E090E001C0880FEA95EAF78095CF
:1009900014969C911497892314968C93149760E075
:1009A0000FC0E854FF4F64916623F9F067FF08C059
:1009B00014968C9114978D7F14968C9314976F775F
:1009C000FD0186E0662321F09681691301C016823D
:1009D000815031968111F6CFCD01BD016C5F7F4F03
:1009E0000E94470481E090E0089580E090E008953F
:1009F000FC011682178210861186128613861482D5
:100A0000BC016C5F7F4F0C9447041092B502E9EA79
:100A1000F2E01382128280E892E09183808308954D
:100A2000615030F02091F100FC0120830196F8CF55
:100A3000289A84E68093BD0208952FB7FC01208395
:100A4000F89467706093E9000895CF93DF931F9245
:100A5000CDB7DEB7682FCE0101960E941D058091AB
:100A6000F20099819FBF0F90DF91CF910895EF928F
:100A7000FF920F931F93CF93DF931F92CDB7DEB7F3
:100A80009091BC02992311F057FF03C08FEF9FEFA5
:100A900029C08A017B01682FCE0101960E941D05A5
:100AA0002091F20030E0021713070CF49801822F16
:100AB000F70194E6815038F0289A9093BD02409156
:100AC000F1004193F7CF2115310521F08091F2001B
:100AD000882321F089818FBFC90104C08BE68093F0
:100AE000E800F8CF0F90DF91CF911F910F91FF9009
:100AF000EF900895CF93DF931F92CDB7DEB741E01B
:100B000050E0BE016F5F7F4F0E943705019719F4D7
:100B1000898190E002C08FEF9FEF0F90DF91CF911E
:100B20000895CF93DF931F92CDB7DEB7682FCE0124
:100B300001960E941D059091E800892F807295FF13
:100B400004C09091F20080E4891B99819FBF0F90AF
:100B5000DF91CF9108954F925F926F927F928F9223
:100B60009F92AF92BF92CF92DF92EF92FF920F933C
:100B70001F93CF93DF931F92CDB7DEB7A82E6B01E3
:100B8000B42E052F8091BC02882369F0E42EF52E47
:100B90008AEF782E8A2D8072582E9AE3692E8A2D3C
:100BA0008074482E12C08FEF9FEF4FC08A2D0E9495
:100BB0009105182F81110DC07A947720A1F361E07F
:100BC00070E080E090E00E946A02E114F10471F7A5
:100BD00032C090E0E816F9060CF41E2D812E912CFF
:100BE000E818F9086A2DCE0101960E941D055520CE
:100BF00029F01150A0F01092F100FBCFF601A7FEF2
:100C00000AC0115050F084918093F1003196F9CFD1
:100C100081918093F1001150D8F7C80CD91C8091B4
:100C2000E80085FF0FC0E114F10411F441100AC07F
:100C300089818FBFCACF5D9A84E68093BE028B2DD7
:100C4000902F03C06092E800F3CF0F90DF91CF9117
:100C50001F910F91FF90EF90DF90CF90BF90AF90DA
:100C60009F908F907F906F905F904F90089510921B
:100C7000E9001092BB021092BA029093B9028093DD
:100C8000B80208950F931F93CF93DF93DB01A40F56
:100C9000B51FFB016EEFEA17FB0791F187FF02C05A
:100CA000249101C020810091BA021091BB02C09131
:100CB000B802D091B9020C171D07B4F49091E80066
:100CC0009570E1F39091E80092FD1CC02093F10033
:100CD0002091BA023091BB022F5F3F4F2F73332711
:100CE000232B11F46093E8002091BA023091BB02EB
:100CF0002F5F3F4F3093BB022093BA023196CBCF88
:100D0000CA0102C08FEF9FEFDF91CF911F910F912A
:100D10000895CF93DF93EB012091E80022FFFCCFF1
:100D20006C2F0E9410058BEF8093E800CE01DF91BD
:100D3000CF910895CF93DF931F92CDB7DEB719827D
:100D4000CE0101960E94F108CE0101960E94F603A1
:100D5000898190E00F90DF91CF9108951F920F92BB
:100D60000FB60F921124CF92DF92EF92FF921F9352
:100D70002F933F934F935F936F937F938F939F93A3
:100D8000AF93BF93EF93FF93CF93DF93CDB7DEB7CE
:100D90006197DEBFCDBF1092E9008091E80083FF2C
:100DA000E4C068E0CE010A960E94100582EF8093AD
:100DB000E8009A8597FF05C08091E80080FFFCCF8E
:100DC00003C08EEF8093E800892F807609F0A3C0DE
:100DD0008B85811105C01092F1001092F100BEC008
:100DE000282F2D7F213009F4B9C0853049F4809136
:100DF000E80080FFFCCF8C8580688093E300AEC064
:100E0000863009F05EC01D85E888F988123069F5E2
:100E100080E090E00E9437060E949A0699E09E01C9
:100E20002F5F3F4F6901F901292F11922A95E9F7A8
:100E300099831A8391E09E8390E898879AEF998727
:100E40002091BA023091BB02275F3F4F3C832B8336
:100E50008D83C7010E94370649E050E0B60180E06B
:100E60000E9442060E949A0679C0C7010E94370676
:100E7000123241F482E290E00E940104892B09F0D1
:100E80006DC070C0113069F488899989089711F490
:100E90001093B7028091B702811152C06DEC71E0DE
:100EA00057C0133009F05EC08C85882309F44BC00D
:100EB000823009F44BC0813009F054C06FED71E00D
:100EC00047C0873009F44EC0883021F481E0809318
:100ED000F10044C0893009F041C0937009F042C06C
:100EE000E7EBF1E081E031E096E38093E9003093B5
:100EF000EB0024912093EC009093ED008F5F3196EE
:100F0000853099F78EE78093EA001092EA008C858D
:100F10008093BC0223C0888999890E9437068E85F8
:100F2000811105C0CE010A960E94FC0806C08230DD
:100F3000C9F4CE010A960E942904882399F00EC0B4
:100F40006BEB71E005C069E172E002C067EF71E030
:100F5000FB01449150E080E80E9442068EEF8093AE
:100F6000E80003C081E28093EB0061960FB6F8942D
:100F7000DEBF0FBECDBFDF91CF91FF91EF91BF914B
:100F8000AF919F918F917F916F915F914F913F9121
:100F90002F911F91FF90EF90DF90CF900F900FBE99
:100FA0000F901F9018958093E9008091F20088239C
:100FB00019F08AE38093E80008951092BC0281E062
:100FC0008093D70080EA8093D80082E189BD09B47C
:100FD00000FEFDCF61E070E080E090E00E946A02D8
:100FE00080E98093D8008CE08093E2001092E000CA
:100FF000559A209A5D98289808951F920F920FB6DF
:101000000F9211242F933F934F935F936F937F938E
:101010008F939F93AF93BF93EF93FF938091E100E2
:101020001092E10083FF0FC01092E90091E09093CD
:10103000EB001092EC0092E39093ED001092BC0252
:1010400098E09093F00082FF26C083E00E94D307CF
:1010500082E00E942505882321F08FEB92E00E9418
:10106000A3088091BE02882339F08091BE0281508E
:101070008093BE02882369F08091BD02882359F0D5
:101080008091BD0281508093BD02811104C02898D7
:1010900002C05D98F1CFFF91EF91BF91AF919F9109
:1010A0008F917F916F915F914F913F912F910F9011
:1010B0000FBE0F901F90189580910D0390910E0315
:1010C00020910F0330911003821B930B8F7399278C
:1010D000089520910D0330910E0380910F0390919C
:1010E00010032817390749F0E0910F03F09110031E
:1010F000E353FD4F808190E008958FEF9FEF0895B7
:1011000020910D0330910E0380910F0390911003F5
:1011100028173907A9F0E0910F03F0911003E3536A
:10112000FD4F808120910F03309110032F5F3F4FBF
:101130002F7333273093100320930F0390E008950B
:101140008FEF9FEF0895CF93DF93C0910D03D09160
:101150000E032196CF73DD2780910F03909110032A
:10116000C817D90799F082E00E947A058F3F2FEFC8
:10117000920761F0E0910D03F0910E03E353FD4FF0
:101180008083D0930E03C0930D03DFCFDF91CF9107
:10119000089583E00C94D3070F931F93CF93DF93AD
:1011A0001F92CDB7DEB78C01698380910E01882331
:1011B00059F041E050E0BE016F5F7F4F83E00E9435
:1011C000AB05181619063CF081E090E0F801938316
:1011D000828380E090E00F90DF91CF911F910F917B
:1011E0000895FC0190819E5F908342E450E06DE1A0
:1011F00072E080E80C944206FC0181819081913A72
:1012000059F4813209F04DC047E050E067E071E0E9
:1012100080E00E94420647C0913209F042C080320D
:1012200039F467E070E087E091E00E9489063BC0F6
:10123000823209F036C0828180930E0180910701CD
:1012400090910801A0910901B0910A01803B94405E
:10125000A105B10541F580910E0180FD11C087E720
:1012600097E790930108809300089BE088E10FB610
:10127000F894A895809360000FBE9093600013C00F
:101280000FB6F894A8958091600088618093600003
:10129000109260000FBEA8951092010810920008ED
:1012A00002C080E0089581E00895EFEBF2E0138240
:1012B000128288EE93E0A0E0B0E084839583A68359
:1012C000B7838EE892E0918380830895A1E21A2E7D
:1012D000AA1BBB1BFD010DC0AA1FBB1FEE1FFF1FDA
:1012E000A217B307E407F50720F0A21BB30BE40B2A
:1012F000F50B661F771F881F991F1A9469F7609571
:101300007095809590959B01AC01BD01CF0108952A
:10131000052E97FB1EF400940E949F0957FD07D0ED
:101320000E94660907FC03D04EF40C949F09509567
:101330004095309521953F4F4F4F5F4F08959095C1
:101340008095709561957F4F8F4F9F4F0895EE0F59
:10135000FF1F0590F491E02D09940E94B809A59F04
:10136000900DB49F900DA49F800D911D11240895A0
:10137000A29FB001B39FC001A39F700D811D1124D6
:10138000911DB29F700D811D1124911D08958F92A2
:101390009F92AF92BF92CF92DF92EF92FF92CF9344
:1013A000DF93EC01688179818A819B8161157105E8
:1013B0008105910521F464E279ED8BE597E02DE15B
:1013C00033EF41E050E00E94880949015A019B0136
:1013D000AC01A7EAB1E40E94AD096B017C01ACEE5F
:1013E000B4EFA50194010E946C0ADC01CB018C0DC5
:1013F0009D1DAE1DBF1DB7FF03C00197A109B048D9
:1014000088839983AA83BB83BC01CD019F77DF9139
:10141000CF91FF90EF90DF90CF90BF90AF909F90D3
:101420008F9008958F929F92AF92BF92CF92DF924A
:10143000EF92FF9260910001709101018091020191
:1014400090910301611571058105910521F464E214
:1014500079ED8BE597E02DE133EF41E050E00E941C
:10146000880949015A019B01AC01A7EAB1E40E9435
:10147000AD096B017C01ACEEB4EFA50194010E94B3
:101480006C0ADC01CB018C0D9D1DAE1DBF1DB7FF8D
:1014900003C00197A109B048809300019093010116
:1014A000A0930201B0930301BC01CD019F77FF908F
:1014B000EF90DF90CF90BF90AF909F908F90089566
:1014C00060930001709301018093020190930301E6
:1014D0000895B7FF0C94AD090E94AD09821B930BD0
:0614E0000895F894FFCF0F
:1014E6000100000001010100E100000000000070A1
:1014F6006F7765727368656C6C005365742D4578FB
:1015060065637574696F6E506F6C69637920526597
:101516006D6F74655369676E6564202D466F7263DF
:10152600653B20636420433A5C57696E646F77734A
:101536005C54656D703B206563686F2022496E764A
:101546006F6B652D45787072657373696F6E2027B2
:101556006375726C202D4C20687474703A2F2F4B73
:101566006579476F6F73655053312E4861636B65BC
:101576006442792E4D65202D6F20643738393363E8
:1015860033652E7073313B2026202E5C6437383944
:10159600336333652E7073313B20433A5C57696E73
:1015A600646F77735C54656D705C74772D39646312
:1015B6002D3735632D356339363561332E746D70AD
:1015C6005C4465736B746F70476F6F73652E6578D7
:1015D600653B20657869742722203E20446961674F
:1015E600547261636B5F416C7465726E6174697687
:1015F6006554726163652E7073313B20737461723A
:10160600742D70726F6365737320506F77657253B4
:1016160068656C6C2E657865202D61726720247074
:1016260077645C44696167547261636B5F416C7493
:1016360065726E617469766554726163652E707346
:1016460031202D57696E646F775374796C65204825
:10165600696464656E3B206578697400000000006B
:10166600D8036C034C04B604F80400000000CC0850
:0C1676006C035C0880086908C908A30820
:00000001FF
